{
  "contractName": "Project",
  "abi": [
    {
      "constant": true,
      "inputs": [],
      "name": "maxInvest",
      "outputs": [
        {
          "name": "",
          "type": "uint256"
        }
      ],
      "payable": false,
      "stateMutability": "view",
      "type": "function"
    },
    {
      "constant": true,
      "inputs": [],
      "name": "goal",
      "outputs": [
        {
          "name": "",
          "type": "uint256"
        }
      ],
      "payable": false,
      "stateMutability": "view",
      "type": "function"
    },
    {
      "constant": true,
      "inputs": [],
      "name": "minInvest",
      "outputs": [
        {
          "name": "",
          "type": "uint256"
        }
      ],
      "payable": false,
      "stateMutability": "view",
      "type": "function"
    },
    {
      "constant": true,
      "inputs": [
        {
          "name": "",
          "type": "address"
        }
      ],
      "name": "investors",
      "outputs": [
        {
          "name": "",
          "type": "uint256"
        }
      ],
      "payable": false,
      "stateMutability": "view",
      "type": "function"
    },
    {
      "constant": true,
      "inputs": [],
      "name": "description",
      "outputs": [
        {
          "name": "",
          "type": "string"
        }
      ],
      "payable": false,
      "stateMutability": "view",
      "type": "function"
    },
    {
      "constant": true,
      "inputs": [
        {
          "name": "",
          "type": "uint256"
        }
      ],
      "name": "payments",
      "outputs": [
        {
          "name": "description",
          "type": "string"
        },
        {
          "name": "amount",
          "type": "uint256"
        },
        {
          "name": "receiver",
          "type": "address"
        },
        {
          "name": "completed",
          "type": "bool"
        },
        {
          "name": "voterCount",
          "type": "uint256"
        }
      ],
      "payable": false,
      "stateMutability": "view",
      "type": "function"
    },
    {
      "constant": true,
      "inputs": [],
      "name": "owner",
      "outputs": [
        {
          "name": "",
          "type": "address"
        }
      ],
      "payable": false,
      "stateMutability": "view",
      "type": "function"
    },
    {
      "constant": true,
      "inputs": [],
      "name": "investorCount",
      "outputs": [
        {
          "name": "",
          "type": "uint256"
        }
      ],
      "payable": false,
      "stateMutability": "view",
      "type": "function"
    },
    {
      "inputs": [
        {
          "name": "_description",
          "type": "string"
        },
        {
          "name": "_minInvest",
          "type": "uint256"
        },
        {
          "name": "_maxInvest",
          "type": "uint256"
        },
        {
          "name": "_goal",
          "type": "uint256"
        },
        {
          "name": "_owner",
          "type": "address"
        }
      ],
      "payable": false,
      "stateMutability": "nonpayable",
      "type": "constructor"
    },
    {
      "constant": false,
      "inputs": [],
      "name": "contribute",
      "outputs": [],
      "payable": true,
      "stateMutability": "payable",
      "type": "function"
    },
    {
      "constant": false,
      "inputs": [
        {
          "name": "_description",
          "type": "string"
        },
        {
          "name": "_amount",
          "type": "uint256"
        },
        {
          "name": "_receiver",
          "type": "address"
        }
      ],
      "name": "createPayment",
      "outputs": [],
      "payable": false,
      "stateMutability": "nonpayable",
      "type": "function"
    },
    {
      "constant": false,
      "inputs": [
        {
          "name": "index",
          "type": "uint256"
        }
      ],
      "name": "approvePayment",
      "outputs": [],
      "payable": false,
      "stateMutability": "nonpayable",
      "type": "function"
    },
    {
      "constant": false,
      "inputs": [
        {
          "name": "index",
          "type": "uint256"
        }
      ],
      "name": "doPayment",
      "outputs": [],
      "payable": true,
      "stateMutability": "payable",
      "type": "function"
    },
    {
      "constant": true,
      "inputs": [],
      "name": "getSummary",
      "outputs": [
        {
          "name": "",
          "type": "string"
        },
        {
          "name": "",
          "type": "uint256"
        },
        {
          "name": "",
          "type": "uint256"
        },
        {
          "name": "",
          "type": "uint256"
        },
        {
          "name": "",
          "type": "uint256"
        },
        {
          "name": "",
          "type": "uint256"
        },
        {
          "name": "",
          "type": "uint256"
        },
        {
          "name": "",
          "type": "address"
        }
      ],
      "payable": false,
      "stateMutability": "view",
      "type": "function"
    }
  ],
  "bytecode": "0x60806040523480156200001157600080fd5b50604051620010f4380380620010f4833981018060405260a08110156200003757600080fd5b8101908080516401000000008111156200005057600080fd5b828101905060208101848111156200006757600080fd5b81518560018202830111640100000000821117156200008557600080fd5b505092919060200180519060200190929190805190602001909291908051906020019092919080519060200190929190505050806000806101000a81548173ffffffffffffffffffffffffffffffffffffffff021916908373ffffffffffffffffffffffffffffffffffffffff16021790555084600190805190602001906200011092919062000131565b508360028190555082600381905550816004819055505050505050620001e0565b828054600181600116156101000203166002900490600052602060002090601f016020900481019282601f106200017457805160ff1916838001178555620001a5565b82800160010185558215620001a5579182015b82811115620001a457825182559160200191906001019062000187565b5b509050620001b49190620001b8565b5090565b620001dd91905b80821115620001d9576000816000905550600101620001bf565b5090565b90565b610f0480620001f06000396000f3fe6080604052600436106100c25760003560e01c80637284e4161161007f578063d2b8b86711610059578063d2b8b86714610573578063d7bb99ba146105a1578063d7e64c00146105ab578063de14c818146105d6576100c2565b80637284e4161461038c57806387d817891461041c5780638da5cb5b1461051c576100c2565b806303120d46146100c75780633110235a146101b957806340193883146101e45780634051ddac1461020f57806363fd9e38146102fc5780636f7bc9be14610327575b600080fd5b3480156100d357600080fd5b506101b7600480360360608110156100ea57600080fd5b810190808035906020019064010000000081111561010757600080fd5b82018360208201111561011957600080fd5b8035906020019184600183028401116401000000008311171561013b57600080fd5b91908080601f016020809104026020016040519081016040528093929190818152602001838380828437600081840152601f19601f82011690508083019250505050505050919291929080359060200190929190803573ffffffffffffffffffffffffffffffffffffffff169060200190929190505050610611565b005b3480156101c557600080fd5b506101ce6107a8565b6040518082815260200191505060405180910390f35b3480156101f057600080fd5b506101f96107ae565b6040518082815260200191505060405180910390f35b34801561021b57600080fd5b506102246107b4565b60405180806020018981526020018881526020018781526020018681526020018581526020018481526020018373ffffffffffffffffffffffffffffffffffffffff1673ffffffffffffffffffffffffffffffffffffffff16815260200182810382528a818151815260200191508051906020019080838360005b838110156102ba57808201518184015260208101905061029f565b50505050905090810190601f1680156102e75780820380516001836020036101000a031916815260200191505b50995050505050505050505060405180910390f35b34801561030857600080fd5b506103116108c5565b6040518082815260200191505060405180910390f35b34801561033357600080fd5b506103766004803603602081101561034a57600080fd5b81019080803573ffffffffffffffffffffffffffffffffffffffff1690602001909291905050506108cb565b6040518082815260200191505060405180910390f35b34801561039857600080fd5b506103a16108e3565b6040518080602001828103825283818151815260200191508051906020019080838360005b838110156103e15780820151818401526020810190506103c6565b50505050905090810190601f16801561040e5780820380516001836020036101000a031916815260200191505b509250505060405180910390f35b34801561042857600080fd5b506104556004803603602081101561043f57600080fd5b8101908080359060200190929190505050610981565b60405180806020018681526020018573ffffffffffffffffffffffffffffffffffffffff1673ffffffffffffffffffffffffffffffffffffffff16815260200184151515158152602001838152602001828103825287818151815260200191508051906020019080838360005b838110156104dd5780820151818401526020810190506104c2565b50505050905090810190601f16801561050a5780820380516001836020036101000a031916815260200191505b50965050505050505060405180910390f35b34801561052857600080fd5b50610531610a89565b604051808273ffffffffffffffffffffffffffffffffffffffff1673ffffffffffffffffffffffffffffffffffffffff16815260200191505060405180910390f35b61059f6004803603602081101561058957600080fd5b8101908080359060200190929190505050610aae565b005b6105a9610c16565b005b3480156105b757600080fd5b506105c0610cb1565b6040518082815260200191505060405180910390f35b3480156105e257600080fd5b5061060f600480360360208110156105f957600080fd5b8101908080359060200190929190505050610cb7565b005b6000809054906101000a900473ffffffffffffffffffffffffffffffffffffffff1673ffffffffffffffffffffffffffffffffffffffff163373ffffffffffffffffffffffffffffffffffffffff161461066a57600080fd5b813073ffffffffffffffffffffffffffffffffffffffff1631101561068e57600080fd5b610696610dec565b6040518060a001604052808581526020018481526020018373ffffffffffffffffffffffffffffffffffffffff16815260200160001515815260200160008152509050600781908060018154018082558091505090600182039060005260206000209060050201600090919290919091506000820151816000019080519060200190610723929190610e33565b506020820151816001015560408201518160020160006101000a81548173ffffffffffffffffffffffffffffffffffffffff021916908373ffffffffffffffffffffffffffffffffffffffff16021790555060608201518160020160146101000a81548160ff0219169083151502179055506080820151816004015550505050505050565b60035481565b60045481565b6060600080600080600080600060016002546003546004543073ffffffffffffffffffffffffffffffffffffffff16316005546007805490506000809054906101000a900473ffffffffffffffffffffffffffffffffffffffff16878054600181600116156101000203166002900480601f0160208091040260200160405190810160405280929190818152602001828054600181600116156101000203166002900480156108a45780601f10610879576101008083540402835291602001916108a4565b820191906000526020600020905b81548152906001019060200180831161088757829003601f168201915b50505050509750975097509750975097509750975097509091929394959697565b60025481565b60066020528060005260406000206000915090505481565b60018054600181600116156101000203166002900480601f0160208091040260200160405190810160405280929190818152602001828054600181600116156101000203166002900480156109795780601f1061094e57610100808354040283529160200191610979565b820191906000526020600020905b81548152906001019060200180831161095c57829003601f168201915b505050505081565b6007818154811061098e57fe5b9060005260206000209060050201600091509050806000018054600181600116156101000203166002900480601f016020809104026020016040519081016040528092919081815260200182805460018160011615610100020316600290048015610a3a5780601f10610a0f57610100808354040283529160200191610a3a565b820191906000526020600020905b815481529060010190602001808311610a1d57829003601f168201915b5050505050908060010154908060020160009054906101000a900473ffffffffffffffffffffffffffffffffffffffff16908060020160149054906101000a900460ff16908060040154905085565b6000809054906101000a900473ffffffffffffffffffffffffffffffffffffffff1681565b6000809054906101000a900473ffffffffffffffffffffffffffffffffffffffff1673ffffffffffffffffffffffffffffffffffffffff163373ffffffffffffffffffffffffffffffffffffffff1614610b0757600080fd5b600060078281548110610b1657fe5b906000526020600020906005020190508060020160149054906101000a900460ff1615610b4257600080fd5b80600101543073ffffffffffffffffffffffffffffffffffffffff16311015610b6a57600080fd5b600260055481610b7657fe5b04816004015411610b8657600080fd5b8060020160009054906101000a900473ffffffffffffffffffffffffffffffffffffffff1673ffffffffffffffffffffffffffffffffffffffff166108fc82600101549081150290604051600060405180830381858888f19350505050158015610bf4573d6000803e3d6000fd5b5060018160020160146101000a81548160ff0219169083151502179055505050565b600254341015610c2557600080fd5b600354341115610c3457600080fd5b6004543073ffffffffffffffffffffffffffffffffffffffff16311115610c5a57600080fd5b34600660003373ffffffffffffffffffffffffffffffffffffffff1673ffffffffffffffffffffffffffffffffffffffff168152602001908152602001600020819055506001600560008282540192505081905550565b60055481565b600060078281548110610cc657fe5b906000526020600020906005020190506000600660003373ffffffffffffffffffffffffffffffffffffffff1673ffffffffffffffffffffffffffffffffffffffff1681526020019081526020016000205411610d2257600080fd5b8060030160003373ffffffffffffffffffffffffffffffffffffffff1673ffffffffffffffffffffffffffffffffffffffff16815260200190815260200160002060009054906101000a900460ff1615610d7b57600080fd5b60018160030160003373ffffffffffffffffffffffffffffffffffffffff1673ffffffffffffffffffffffffffffffffffffffff16815260200190815260200160002060006101000a81548160ff021916908315150217905550600181600401600082825401925050819055505050565b6040518060a001604052806060815260200160008152602001600073ffffffffffffffffffffffffffffffffffffffff168152602001600015158152602001600081525090565b828054600181600116156101000203166002900490600052602060002090601f016020900481019282601f10610e7457805160ff1916838001178555610ea2565b82800160010185558215610ea2579182015b82811115610ea1578251825591602001919060010190610e86565b5b509050610eaf9190610eb3565b5090565b610ed591905b80821115610ed1576000816000905550600101610eb9565b5090565b9056fea165627a7a72305820e53f16d1261e355611d7eb4de499070982ac529bbe0dbcf7ac8a0d214bf363df0029",
  "source": "pragma solidity  >=0.4.21 <0.6.0;\nlibrary SafeMath {\n    function mul(uint a, uint b) internal pure returns (uint) {\n        uint c = a * b;\n        assert(a == 0 || c / a == b);\n        return c;\n    }\n\n    function div(uint a, uint b) internal pure returns (uint) {\n        // assert(b > 0); // Solidity automatically throws when dividing by 0\n        uint c = a / b;\n        // assert(a == b * c + a % b); // There is no case in which this doesn't hold\n        return c;\n    }\n\n    function sub(uint a, uint b) internal pure returns (uint) {\n        assert(b <= a);\n        return a - b;\n    }\n\n    function add(uint a, uint b) internal pure returns (uint) {\n        uint c = a + b;\n        assert(c >= a);\n        return c;\n    }\n}\n\ncontract ProjectList {\n    using SafeMath for uint;\n    address[] public projects;\n    \n    function createProject(string memory _description, uint _minInvest, uint _maxInvest, uint _goal) public {\n        address newProject = address(new Project(_description, _minInvest, _maxInvest, _goal, msg.sender));\n        projects.push(newProject);\n    }\n    \n    function getProjects() public view returns(address[] memory) {\n        return projects;\n    }\n}\n\ncontract Project {\n    using SafeMath for uint;\n    \n    struct Payment {\n        string description;\n        uint amount;\n        address receiver;\n        bool completed;\n        mapping(address => bool) voters;\n        uint voterCount;\n    }\n    \n    address public owner;\n    string public description;\n    uint public minInvest;\n    uint public maxInvest;\n    uint public goal;\n    uint public investorCount;\n    mapping(address => uint) public investors;\n    \n    Payment[] public payments;\n    \n    \n    constructor(string memory _description, uint _minInvest, uint _maxInvest, uint _goal, address _owner) public {\n        owner = _owner;\n        description = _description;\n        minInvest = _minInvest;\n        maxInvest = _maxInvest;\n        goal = _goal;\n    }\n    \n    modifier ownerOnly() {\n        require(msg.sender == owner);\n        _;\n    }\n    \n    function contribute() public payable {\n        require(msg.value >= minInvest);\n        require(msg.value <= maxInvest);\n        \n        require(address(this).balance <= goal);\n        \n        investors[msg.sender] = msg.value;\n        investorCount += 1;\n    }\n    \n    function createPayment(string memory _description, uint _amount, address _receiver) ownerOnly public {\n        require(address(this).balance >= _amount);\n        \n        Payment memory newPayment = Payment({\n            description: _description,\n            amount: _amount,\n            receiver: _receiver,\n            completed: false,\n            voterCount: 0\n        });\n        \n        payments.push(newPayment);\n    }\n    \n    function approvePayment(uint index) public {\n        Payment storage payment = payments[index];\n        require(investors[msg.sender] > 0);\n        require(!payment.voters[msg.sender]);\n        payment.voters[msg.sender] = true;\n        payment.voterCount += 1;\n    }\n    \n    function doPayment(uint index) ownerOnly public payable {\n        Payment storage payment = payments[index];\n        \n        require(!payment.completed);\n        require(address(this).balance >= payment.amount);\n        require(payment.voterCount > (investorCount / 2));\n        address(uint160(payment.receiver)).transfer(payment.amount);\n        payment.completed = true;\n    }\n    \n    \n    function getSummary() public view returns (string memory, uint, uint, uint, uint, uint, uint, address) {\n        return (\n            description,\n            minInvest,\n            maxInvest,\n            goal,\n            address(this).balance,\n            investorCount,\n            payments.length,\n            owner\n        );\n    }\n    \n    \n}",
  "sourcePath": "/Users/alphabet/dapp/crowd-funding/contracts/Project.sol",
  "compiler": {
    "name": "solc",
    "version": "0.5.8+commit.23d335f2.Emscripten.clang"
  },
  "schemaVersion": "3.0.10",
  "updatedAt": "2019-10-15T08:54:12.060Z",
  "devdoc": {
    "methods": {}
  },
  "userdoc": {
    "methods": {}
  }
}